:100000000C9448000C9465000C94EB1D0C94460A6B
:100010000C94810A0C9465000C9465000C946500A6
:100020000C9465000C9465000C9465000C946500BC
:100030000C9465000C9465000C9465000C946500AC
:100040000C9465000C9465000C9465000C9465009C
:100050000C9465000C9465000C94F90E0C94CD0E74
:100060000C9465000C9465000C9465000C9465007C
:100070000C9465000C944A080C94130E0C945009CF
:100080000C9479090C94A2090C9465000C946500F9
:1000900011241FBECFEFCDBFDFE3DEBF18E2A0E02B
:1000A000B8E2E2E0FEE402C005900D92A638B10786
:1000B000D9F726E3A6E8B8E201C01D92A239B2073B
:1000C000E1F70E9456200C9465250C9400000F93D4
:1000D0001F93CF93DF93CDB7DEB7C85ED340CDBFBC
:1000E000DEBF2091702C3091712CD9011696ED91C4
:1000F000FC91179788EE93E0DE01119601900D9226
:100100000197E1F78981883449F0C851DC4FCDBFB0
:10011000DEBFDF91CF911F910F9108958A818435C1
:10012000A1F78B81843589F78C81803571F78D81BA
:100130008F3259F78E81813341F78F818E3229F7C3
:1001400088858053823008F74B8550E04053510931
:100150008AE0849FB001859F700D11248C8590E00A
:10016000C097860F971F4A8550E040535109E4E637
:10017000E49FB001E59F700D1124860F971FF901D0
:1001800082879387FE013D968CE090E005C0019642
:10019000883E43E0940719F041914A30C1F7FE01CF
:1001A000E80FF91F4389FE01E80FF91F4D3009F4EC
:1001B000ADC0A489FE01E80FF91FAD3009F497C066
:1001C0007589FE01E80FF91F62897D3009F474C05A
:1001D00050E0460F511D4056510964E6649F80016E
:1001E000659F100D11244A2F50E0405351096AE0D9
:1001F000649FF001659FF00D1124E00FF11F472F60
:1002000050E040535109BF01640F751FDC01549643
:10021000A83EE3E0BE07D4F44096E1E0F0E0EC0F46
:10022000FD1FE80FF91F06C011963196A83E43E066
:10023000B40761F083818A30B9F781818A30A1F7F0
:1002400082818D3089F780818D3071F780E090E078
:1002500006C010820196883EF3E09F0749F0F9013D
:1002600046815781FA01E80FF91F40814111F1CF12
:1002700016161706A4F4E1E0F0E0EC0FFD1FAE0F38
:10028000BF1F80E090E04D91F90106811781F801D0
:10029000E80FF91F4083019668177907A1F7D90184
:1002A0001896ED91FC91199760831C96ED91FC9145
:1002B0001D9781E0808329CF70E06053710954E677
:1002C000569F8001579F100D1124E42FF0E0F09706
:1002D0004AE04E9FB0014F9F700D1124600F711FB7
:1002E0004A2F50E040535109640F751F8FCFE289A8
:1002F000F0E0F0975AE05E9FB0015F9F700D11240F
:1003000050E040535109640F751F80CF628970E03F
:10031000605371097BCF0F931F936630E9F167300B
:10032000A9F1653019F01F910F91089541155105FC
:1003300009F449C0FA01818187FD45C085ED9AE83D
:100340000E945122E8E8F8E201900020E9F7319795
:10035000AF014858584220E030E068E878E28091E8
:1003600000280E94D51CE091702CF091712C6681C0
:10037000778100ED17E020E030E048EE53E0809117
:1003800000280E94351D1F910F9108958DE09BE874
:100390001F910F910C9451224115510531F0FA0132
:1003A00082819381181619068CF08CE59BE80E94D7
:1003B0005122809100280E94A71D8FEF8093002872
:1003C0001F910F91089582EF9AE8F1CFE091702C80
:1003D000F091712C6681778100ED17E020E030E02C
:1003E00048EE53E0809100280E94351D87E29BE88B
:1003F0000E94512281E49BE80E94512280910028B2
:100400000E94A71D8FEF809300281F910F910C94DD
:1004100067000F931F93CF93DF93CDB7DEB760973D
:10042000CDBFDEBF8093722C9093732C6093702CA1
:100430007093712CDC011496ED91FC9115978481D9
:100440009581A681B7818D839E83AF83B887828192
:1004500093818B839C838081918189839A8380910E
:10046000012890910228019649F080E06096CDBF66
:10047000DEBFDF91CF911F910F91089540E061E0C1
:1004800082E090E00E94061C8093002887FD3CC01B
:10049000E091722CF091732C0081118140E1BE013A
:1004A0006F5F7F4F0E94881CF8018083E091722C5F
:1004B000F091732C0190F081E02D808187FD4EC07A
:1004C000E091702CF091712CA485B5851C928081EF
:1004D000823039F18330F1F0813039F684818F93A5
:1004E00083818F9385EA9BE89F938F9388E898E2B6
:1004F0009F938F930E9481220F900F900F900F90E7
:100500000F900F9080E0B2CF84E79BE80E945122C9
:100510008FEFACCF84818F9383818F938CEC9BE89A
:10052000E3CF82818F9381818F938581282F082E3D
:10053000000C330B3F938F9384818F9383818F9330
:1005400086EF9BE89F938F9388E898E29F938F9321
:100550000E948122CDBFDEBF80E088CF809100283D
:100560000E94A71D8FEF8093002880E07FCF0E941C
:10057000EA1B60E070E08BE891E00C94FD1B88EDD5
:10058000A89584BF809100018160809300018091D3
:10059000010181FDFCCFFFCF0E94B62180932E2E5A
:1005A0000895CF92DF92EF92FF920F931F93CF9314
:1005B000DF93CDB7DEB72697CDBFDEBF7C011B82B0
:1005C0001C8260E67CE80E94D42189839A8300978C
:1005D00009F456C08E010F5F1F4F6E0127E0C20E57
:1005E000D11CF801819391938F0160E67CE880E053
:1005F00090E00E94D421009719F0C016D10689F727
:1006000069817A81F70101900020E9F73197EE19AD
:10061000FF09389748F140E450E08BE79EE20E94E2
:10062000FD216B817C8140E450E080E39EE20E94EA
:10063000FD210BE71EE21F930F9382E69CE89F9338
:100640008F930E943B221F930F938CE69CE89F930D
:100650008F930E943B2286E79CE80E94512281E012
:100660008093702ECDBFDEBF2696CDBFDEBFDF915B
:10067000CF911F910F91FF90EF90DF90CF90089551
:1006800060E070E0BFCF8091C92D1F928F9383E807
:100690009CE89F938F930E943B220F900F900F90A6
:1006A0000F90089510922F2E84ED93E08093712E79
:1006B0009093722E809140088091440887FDFACF74
:1006C0008091450880688093450842E350E060E0EF
:1006D00070E081E79EE20C944E069F92AF92BF922B
:1006E000CF92DF92EF92FF920F931F93CF93DF93FE
:1006F0007C0160E270E00E94E2215C01009719F049
:10070000DC011D925D01F70101900020E9F73197AE
:100710009E2E9E1806ED1CE88AEEC82E8CE8D82E78
:10072000C5E0D0E065EA7CE8C7010E94ED218111B7
:1007300002C09C16B1F00C5F1F4FC016D10629F104
:10074000F80160817181EB0109900020E9F72197A0
:10075000C61BD70BC7010E94ED218111ECCF9C1263
:10076000EACFD8011296ED91FC911397309719F3C7
:10077000C501DF91CF911F910F91FF90EF90DF9016
:10078000CF90BF90AF909F9009948BEA9CE8DF9147
:10079000CF911F910F91FF90EF90DF90CF90BF907E
:1007A000AF909F900C945122CF93C1E00E94B70963
:1007B0008823D1F08091762C811116C00E94BE0949
:1007C0008D30C1F08A3091F1E0912F2EE43658F54A
:1007D00091E09E0F90932F2EF0E0E653F24D808330
:1007E0000E94B7098111E6CF62E370E080E090E0FB
:1007F000CF910895E0912F2EF0E0E653F24D108254
:100800009091752C91111CC08093742C8AEC9DE200
:100810000E946D038091752C811112C010922F2EB1
:100820001092752CC3CFC093752CC0CFE0912F2EA2
:10083000F0E0E653F24D10829091752C992329F047
:1008400080EB9CE80E945122E9CF9091742C9D305E
:10085000D9F68093742CE2CF80E00C94B40860E069
:1008600070E0CB0108958F929F92AF92BF92CF928A
:10087000DF92EF92FF920F931F93CF93DF938C0140
:10088000DC011696CD90DD90ED90FC901997C0910B
:10089000822CD091832C14961D921C9215978091D6
:1008A0007C2C90917D2CA0917E2CB0917F2CC81631
:1008B000D906EA06FB0680F1209709F494C08E81E0
:1008C0009F81A885B985C816D906EA06FB0658F4A3
:1008D0008AC086819781A085B185C816D906EA06A7
:1008E000FB0628F0EF01EC81FD81309791F7D801EC
:1008F0001496ED93FC9315970C831D8380E0DF9194
:10090000CF911F910F91FF90EF90DF90CF90BF900C
:10091000AF909F908F90089580907C2C90907D2C2C
:10092000A0907E2CB0907F2C8091772C811135C0C7
:10093000209791F0FE0186819781A085B185881965
:100940009909AA09BB0986839783A087B187048088
:10095000F581E02D309779F780917C2C90917D2C5A
:10096000A0917E2CB0917F2C88199909AA09BB0906
:1009700080937C2C90937D2CA0937E2CB0937F2C25
:10098000BFEFEB1AFB0AC818D908EA08FB08F80100
:10099000C682D782E086F1868FCF0E94B70AA0E098
:1009A000B0E04091782C5091792C60917A2C709124
:1009B0007B2C84179507A607B70720F48FEF9FEFCE
:1009C000A0E0B0E04091782C5091792C60917A2C85
:1009D00070917B2C841A950AA60AB70A880E991E74
:1009E000AA1EBB1EA5CF1092782C1092792C1092C3
:1009F0007A2C10927B2C80E090E00E94AD0A0E943D
:100A0000C80A8091782C9091792CA0917A2CB09181
:100A10007B2C0E94AD0A0E94C80AE091822CF091C2
:100A2000832CB8E2E330FB0759F0D8011496ED931C
:100A3000FC9315970093822C1093832C81E05FCF59
:100A40000480F581E02DF1CF0F931F930E94C20A1D
:100A5000E091822CF091832C309709F462C0409190
:100A60007C2C50917D2C60917E2C70917F2C868106
:100A70009781A085B185841B950BA60BB70B0097BA
:100A800001E0A007B10560F54FEF5FEF60E070E0B7
:100A90008A019B01081B190B2A0B3B0BD901C801CA
:100AA0008093782C9093792CA0937A2CB0937B2C04
:100AB00080E090E00E94AD0A0E94C80A8091782CE4
:100AC0009091792CA0917A2CB0917B2C0E94AD0A48
:100AD0000E94BC0A81E08093772C1F910F910895AA
:100AE00080917C2C90917D2CA0917E2CB0917F2CBC
:100AF0000197AF4FBF4F8093092890930A28A09386
:100B00000B28B0930C28E0930728F093082883E083
:100B100098E28093822C9093832C80E090E0DC011B
:100B2000BFCF0E94C20A10927C2C10927D2C109292
:100B30007E2C10927F2C1092782C1092792C10928F
:100B40007A2C10927B2C1092772CC7CFA091822CFC
:100B5000B091832C14962D913C91159716964D913A
:100B60005D916D917C91199740937C2C50937D2CD5
:100B700060937E2C70937F2C1092782C1092792C9D
:100B800010927A2C10927B2C88E2A330B807B1F037
:100B900014961D921C9215978091802C9091812C17
:100BA000892B91F0E091802CF091812C01C0FC0107
:100BB000848195810097D9F7A483B5832093822CF3
:100BC0003093832C0C942405A093802CB093812C1B
:100BD000F5CF0F931F93CF93DF93DC012D913C91C1
:100BE000232B89F1EB018C010E94C20AF80180815C
:100BF00091818C179D0771F1F801A081B181109747
:100C000071F0CA17DB0729F413C0CE17DF0799F07C
:100C1000DF011496ED91FC9115973097B1F7C0E084
:100C20000E94BC0A8C2FDF91CF911F910F910895E4
:100C3000FD01A0E0B0E08481958114968D939C9392
:100C40001597C1E0EDCFC0E08C2FDF91CF911F91C0
:100C50000F9108950190F081E02D84819581D80154
:100C60008D939C930E942405C1E0DCCFCF93DF934A
:100C7000EC01BC0182E89CE20E94E905811105C0FB
:100C8000BE0180E89CE20E94E9051C821D82DF9182
:100C9000CF91089586EA95E00C94410ACF92DF92B5
:100CA000EF92FF92CF93DF93EC016A017B010E94E8
:100CB00036060E94C20A80917C2C90917D2CA091D6
:100CC0007E2CB0917F2CC80ED91EEA1EFB1E80918F
:100CD000772C81111CC0CE82DF82E886F986CE0196
:100CE0000E943304811139C08091772C811107C093
:100CF000DF91CF91FF90EF90DF90CF900895DF913B
:100D0000CF91FF90EF90DF90CF900C94BC0A0E949F
:100D1000B70AA0E0B0E04091782C5091792C609116
:100D20007A2C70917B2C84179507A607B70720F4BF
:100D30008FEF9FEFA0E0B0E04091782C5091792C9C
:100D400060917A2C70917B2CC41AD50AE60AF70AB6
:100D5000C80ED91EEA1EFB1EBECFDF91CF91FF90B9
:100D6000EF90DF90CF900C9424051F93CF93DF93E7
:100D70008091802C9091812C892B09F10E94CE0AC0
:100D8000182F0E94C20AC091802CD091812CE09132
:100D9000802CF091812C848195818093802C90937C
:100DA000812C1C821D82111116C0E881F9818A8173
:100DB0009B810995611571058105910521F4DF91EC
:100DC000CF911F910895AB01BC01CE01DF91CF916E
:100DD0001F910C944E060E94BC0AE7CF61E070E0C0
:100DE0000E94CF0D60E070E080E090E00E941D0D59
:100DF00084E0089562E070E00E94CF0D60E070E052
:100E000080E090E00E941D0D82E008951F93CF9333
:100E1000DF9300D0CDB7DEB7182F69834A83812FC7
:100E20000E94570D8823D9F3BE016E5F7F4F8EEE6F
:100E300096E00E941D0D61E070E0CE0101960E94D7
:100E4000CF0D60E070E086E09EE00E94330D0E94CE
:100E5000F40D0E94AA0D8130E1F30F900F90DF9105
:100E6000CF911F9108951F93CF93DF9300D01F92CE
:100E7000CDB7DEB7182F6B83812F0E94570D8823C3
:100E8000D9F3BE016F5F7F4F8AEF96E00E941D0D80
:100E900061E070E0CE0103960E94CF0D60E070E04B
:100EA00086E09EE00E94330D0E94F40D0E94AA0D80
:100EB0008130E1F389819A819827892798272396A1
:100EC000CDBFDEBFDF91CF911F91089508950895A2
:100ED0000895089508950895E0E9F4E08081886018
:100EE0008193E83984E0F807C9F7E0EBF4E080810A
:100EF00088608193E83B84E0F807C9F7E0E1F4E01B
:100F0000808188608193E83184E0F807C9F7E0E3E5
:100F1000F4E0808188608193E83384E0F807C9F7C2
:100F2000E0E5F4E0808188608193E83584E0F807AB
:100F3000C9F7E0E7F4E0808188608193E83784E0D6
:100F4000F807C9F708950F931F93CF93DF930E947B
:100F50006C0740E054E082EDFA01808320E234E047
:100F6000F901108280E494E0FC011082C0E6D4E034
:100F70006FE06883A0E8B4E01C9200EA14E069E145
:100F8000F801608360E8FA016483F9011482FC01CE
:100F900014821C8214961C921497F8011482FA0190
:100FA000108A118A128A138A148A158A168A178A55
:100FB000F901108A118A128A138A148A158A168AEC
:100FC000178AFC01108A118A128A138A148A158AD8
:100FD000168A178A188A198A1A8A1B8A1C8A1D8AF5
:100FE0001E8A1F8A50961C92509751961C925197B8
:100FF00052961C92529753961C92539754961C9259
:10100000549755961C92559756961C9256975796FC
:101010001C92F801108A118A8BE0828B138A148A41
:10102000158A168A178AE0EEF5E01182108282E0B6
:10103000848315821382128287E697E080938E2C38
:1010400090938F2C88E697E080938C2C90938D2C36
:1010500089E697E080938A2C90938B2C8AE697E020
:101060008093882C9093892C8BE697E08093862C34
:101070009093872C86E697E08093842C9093852C20
:10108000DF91CF911F910F9108958093882C9093B9
:10109000892C08951F920F920FB60F9211242F934F
:1010A0003F934F935F936F937F938F939F93AF93F0
:1010B000BF93EF93FF93B9993AC0B89932C0BB99E7
:1010C0002AC0BA9922C0BD991AC0BC9B05C0E09144
:1010D000842CF091852C09958FEF87BBFF91EF91C0
:1010E000BF91AF919F918F917F916F915F914F9140
:1010F0003F912F910F900FBE0F901F901895E09188
:10110000862CF091872C0995E0CFE091882CF09106
:10111000892C0995D8CFE0918A2CF0918B2C0995D8
:10112000D0CFE0918C2CF0918D2C0995C8CFE09117
:101130008E2CF0918F2C0995C0CF40E068ED80E1B6
:1011400091E00E941709E0E1F1E01282138280E051
:101150000895E0ECF8E081E280831182128210921F
:10116000902C138280E008959091902C911111C0E1
:10117000E82FF0E0EE0FFF1FE35FF74D90818181D4
:1011800021E02093902C9093C0088093C10881E0C7
:10119000089580E008951092902C08958093C408DB
:1011A0008091C30887FFFCCF8091C4080895FC019B
:1011B0006115710579F0680F791F80818093C408EB
:1011C0009091C30897FFFCCF8091C40881936E175C
:1011D0007F0799F708956115710579F0FC01680F93
:1011E000791F81918093C4088091C30887FFFCCF49
:1011F0008091C408E617F707A1F70895FC0161156F
:10120000710571F0680F791F1092C4089091C3089E
:1012100097FFFCCF8091C40881936E177F07A1F7D9
:1012200008958093C40808958091C4080895FC012E
:1012300064BF4083089590914008E091B62CEF5F21
:10124000EF738091B52CE81759F0E093B62CF0E0DD
:10125000E954F34D90838091B42C8F5F8093B42C2C
:1012600008958091912C882389F0E091922CEF5F72
:10127000EF71E093922CF0E0EC56F34D8081809377
:1012800042088091912C81508093912C8091912CD7
:10129000811105C0809145088F7D80934508089590
:1012A0001F920F920FB60F9211242F933F934F93DB
:1012B0005F936F937F938F939F93AF93BF93EF93BE
:1012C000FF93E0911328F0911428309709F00995C5
:1012D000FF91EF91BF91AF919F918F917F916F910E
:1012E0005F914F913F912F910F900FBE0F901F90E4
:1012F00018951F920F920FB60F9211242F933F93C0
:101300004F935F936F937F938F939F93AF93BF930D
:10131000EF93FF93E0911128F0911228309709F094
:101320000995FF91EF91BF91AF919F918F917F911F
:101330006F915F914F913F912F910F900FBE0F9042
:101340001F9018951F920F920FB60F9211248F9332
:10135000EF93FF93E0E4F8E0848180648483FF915D
:10136000EF918F910F900FBE0F901F901895909155
:10137000B42C81E0911101C080E008958091B42CDB
:101380008823E1F3E091B52CEF5FEF73E093B52C88
:101390000FB6F8940F928091B42C81508093B42CA6
:1013A0000F900FBEF0E0E954F34D80810895209135
:1013B000932C2F5F2F719091912C9032E1F3E22FBB
:1013C000F0E0EC56F34D80832093932C0FB6F89405
:1013D0000F928091912C8F5F8093912C0F900FBE74
:1013E0008091450880628093450808950E94D7093E
:1013F00080E090E00895E0E4F8E087E490E1808701
:10140000918780ED858380EC868383E087831386D4
:101410001486168615861092B52C1092B62C109252
:10142000B42C1092922C1092932C1092912C85E156
:1014300098E280938E3690938F3608958091410183
:101440008111FCCF10924C0110924D011092480175
:10145000109249018FEF9FEF80934A0190934B01C7
:10146000109247011092450181E080934201109251
:10147000500110925501109252018093400180E07A
:1014800008958093FB2C9093FC2C08951F920F924B
:101490000FB60F9211242F933F934F935F936F9347
:1014A0007F938F939F93AF93BF93EF93FF9380911D
:1014B000430180FF07C0E091FB2CF091FC2C30979A
:1014C00009F009958091430181FF07C0E091F92C53
:1014D000F091FA2C309709F0099583E0809343014D
:1014E000FF91EF91BF91AF919F918F917F916F91FC
:1014F0005F914F913F912F910F900FBE0F901F90D2
:1015000018951F920F920FB60F9211242F933F93AD
:101510004F935F936F937F938F939F93AF93BF93FB
:10152000EF93FF93E091F72CF091F82C309709F0AE
:10153000099581E080934301FF91EF91BF91AF91B5
:101540009F918F917F916F915F914F913F912F91DB
:101550000F900FBE0F901F9018959C019091410124
:1015600091FDFCCF2093480130934901089580916B
:101570004801909149010895E0E4F1E082818160A1
:1015800082830895E0E4F1E082818E7F8283089572
:10159000E0E4F1E083818E7F83830895909142019E
:1015A00081E090FD089580E00895E0EAF8E084810C
:1015B00088608483858181608583E0E2FDE28081AB
:1015C0008D7F808310921F2D8EE00895E0E2FDE272
:1015D00080818D7F808310921F2D80E00895E0EA46
:1015E000F8E0848183608483E0E2FDE280818D7F86
:1015F000808310921F2D80E00895E0E2FDE280815B
:10160000816080838091192D880F81608093A70865
:1016100084E008950C94FD0A0C94FD0AE0E2FDE2DA
:101620008081816080838091192D880F8093A70825
:1016300083E008950C940E0BE0EAF8E084818B7F40
:10164000848384E00895E0EAF8E084818B7F8483DA
:1016500083E00895E0EAF8E08481846084838481F3
:1016600083608483E0E2FDE280818D7F808310923D
:101670001F2D80E00895E0EAF8E08481846084838F
:1016800088E00895E0EAF8E08481886084838581B9
:1016900081608583E0E2FDE280818D7F808382E04E
:1016A00080931F2D8EE008958091A508806C809313
:1016B000A5088091202D80FF04C08091A50884FD9D
:1016C0001BC08091A50883FF03C080E180931E2D7D
:1016D0008091A50882FF14C081E180931E2DE1E175
:1016E000F0E0EE0FFF1FED5DF74D0190F081E02D72
:1016F000099580931E2D08958FE080931E2DE1CFD4
:10170000E0911E2DF0E0EDCF8091A50888608093D8
:10171000A50882E080931F2DE091FF2CF091002D11
:1017200080910B2D90910C2D0995823009F1833019
:1017300061F48091202D81608093202D8091192D5E
:10174000880F8093A70883E008958091A40888609B
:101750008093A4088091A50881608093A50880915A
:10176000202D8D7F8093202D10921F2D8EE00895C7
:101770008091202D81608093202D8091192D880FDC
:1017800081608093A70884E008958091202D8E7F4A
:101790008093202D82E080931F2DE091012DF09108
:1017A000022D80910D2D90910E2D09958230E1F042
:1017B000833061F48091202D81608093202D809171
:1017C000192D880F8093A70883E008958091A408BD
:1017D00083608093A4088091202D8D7F8093202D9D
:1017E00010921F2D80E008958091202D81608093BC
:1017F000202D8091192D880F81608093A70884E0A7
:1018000008958091A50884FD21C08091202D8E7FB0
:101810008093202DE0911A2DF0911B2DCF01019680
:1018200080931A2D90931B2D80818093A80880911E
:101830001C2D90911D2D019780931C2D90931D2D93
:10184000892B11F083E0089585E00895E091032D40
:10185000F091042D80910F2D9091102D09958230DB
:1018600071F08330C9F48091202D81608093202D08
:101870008091192D880F8093A70883E008958091A7
:10188000202D81608093202D8091192D880F8160FB
:101890008093A70884E008958091A40883608093D2
:1018A000A4088091202D8D7F8093202D10921F2DD4
:1018B00080E008958091A50884FF19C0E091032D70
:1018C000F091042D80910F2D9091102D099582306B
:1018D00081F1833001F58091202D81608093202D4E
:1018E0008091192D880F8093A70883E00895809137
:1018F000202D88608093202DE091FD2CF091FE2C0E
:101900008091092D90910A2D0995833021F384301F
:10191000E9F0823071F08091A40883608093A4087C
:101920008091202D8D7F8093202D10921F2D80E09F
:1019300008958091202D81608093202D8091192D14
:10194000880F81608093A70884E008950C94010CAF
:101950008091202D8E7F8093202D80911C2D909141
:101960001D2D8130910509F12091A4082B7F209332
:10197000A408019780931C2D90931D2DE0911A2DA2
:10198000F0911B2D8091A808808380911A2D909151
:101990001B2D019680931A2D90931B2D8091A408E6
:1019A00082608093A40884E008958091A4088460F4
:1019B0008093A40810921C2D10921D2DE0911A2DD9
:1019C000F0911B2D8091A808808380911A2D909111
:1019D0001B2D019680931A2D90931B2D8091202D05
:1019E00088608093202DE091FD2CF091FE2C809159
:1019F000092D90910A2D09958250823038F48091FA
:101A0000A40884608093A40888E008958091A408C5
:101A100084608093A4088091A40883608093A408C4
:101A20008091202D8D7F8093202D10921F2D80E09E
:101A3000089585E0089581E00895009749F0809326
:101A4000FD2C9093FE2C6093092D70930A2D089520
:101A50008BE19DE08093FD2C9093FE2C1092092D3C
:101A600010920A2D0895009749F08093012D9093CC
:101A7000022D60930D2D70930E2D08958BE19DE046
:101A80008093012D9093022D10920D2D10920E2D0A
:101A90000895E0EAF8E0108212828DE2868381E008
:101AA0008383158217821482108680E008959091B6
:101AB000202D92FD4DC08093192D987F8EE080934C
:101AC0001E2D24EF31E02093172D3093182D9460B4
:101AD00098609093202D8BE19DE08093FD2C909356
:101AE000FE2C1092092D10920A2D8093FF2C9093BA
:101AF000002D10920B2D10920C2D8093012D9093A0
:101B0000022D10920D2D10920E2D8093032D909387
:101B1000042D10920F2D1092102D89E19DE08093DD
:101B2000052D9093062D1092112D1092122D80915B
:101B3000A40888608093A4088091A50881608093A0
:101B4000A5088091A508806C8093A50880E0089581
:101B500081E008958091A50882FF08C08091202D22
:101B60008D7F8093202D82E080931F2D8091202DEA
:101B700081FD13C08B7F8093202D8FEF8093192DD3
:101B80008091A508806C8093A5088091A3088F732D
:101B90008093A30880911F2D089581E008959C01F2
:101BA0009091202D93FF0BC020931A2D30931B2D65
:101BB00060931C2D70931D2D977F9093202D089579
:101BC0008091202D81FD05C00EC08091A50886FD65
:101BD00004C08091A50887FFF8CF0E94540B809124
:101BE000202D81FDF6CF08958091202D81FF02C028
:101BF00081E0089582608093202D82E080931E2DE5
:101C00000E94540B0E94E00D80E0089583E0089547
:101C1000E0E0F0E181E0818383831092272D109230
:101C2000282D80E008951F920F920FB60F92112475
:101C30002F933F934F935F936F937F938F939F93D4
:101C4000AF93BF93EF93FF9381E080930410809153
:101C5000262D811117C01092212D809103108E7FA7
:101C6000809303108091272D9091282D892B99F135
:101C7000E091272DF091282D09952DC08091262DDA
:101C8000882319F1E091222DF091232DCF010196A7
:101C90008093222D9093232DA091242DB091252D5A
:101CA000CD0101968093242D9093252D8C918083D6
:101CB0008091262D81508093262D8091222D909108
:101CC000232D8F739927892BC9F643E06DE980E0B6
:101CD00090E10E941709FF91EF91BF91AF919F9101
:101CE0008F917F916F915F914F913F912F910F90C5
:101CF0000FBE0F901F9018959C01FB019091212D14
:101D00009230E1F3B9017C5ECF010C94D9219C01A2
:101D10009091212D9230E1F33C5E2093222D30935F
:101D2000232D6093242D7093252D4093262D82E042
:101D30008093212D44E06DE980E090E10E94170935
:101D40008091031081608093031080E00895E0E0AB
:101D5000F6E081E0868B118212821382148214864F
:101D60001186128616829BEB9583148A158A128A35
:101D7000138A808380E008958093060681E0809333
:101D8000080680910B0680FFFCCF80911006909191
:101D9000110621E020930B0608951F920F920FB6B3
:101DA0000F9211242F933F934F935F936F937F93E1
:101DB0008F939F93AF93BF93EF93FF93E091292D60
:101DC000F0912A2D309709F0099582E080930B0657
:101DD000FF91EF91BF91AF919F918F917F916F9103
:101DE0005F914F913F912F910F900FBE0F901F90D9
:101DF00018951F920F920FB60F9211248F9381E0C6
:101E000080930B068F910F900FBE0F901F90189527
:101E10000F931F93CF93DF931F92CDB7DEB7082F99
:101E20001BE006C00917C9F091111FC01150E9F05D
:101E300061E070E0CE0101960E9486128823A9F02D
:101E40009981003F79F7892F807F803F69F70F9054
:101E5000DF91CF911F910F91089561E070E0CE0165
:101E600001960E948612811107C08FEF0F90DF91BB
:101E7000CF911F910F9108958981E9CFEF92FF9241
:101E80000F931F93CF93DF937C01EB01209761F4B5
:101E90001FC0B801C7010E948612882389F0E00E96
:101EA000F11EC01BD10BA1F08E01C13080E2D8071A
:101EB00010F000E010E280EF0E94080F8C7049F3F0
:101EC00081E0DF91CF911F910F91FF90EF900895E6
:101ED00080E0DF91CF911F910F91FF90EF900895D7
:101EE000CF93DF93EC0170E00E943312811105C0A3
:101EF00091E0892FDF91CF91089588810E94080F8A
:101F000091E08111F6CF90E0892FDF91CF91089574
:101F10000F931F93CF93DF93CDB7DEB72897CDBF35
:101F2000DEBF8A016F3F71058105910509F0D0F48C
:101F300024EC2D8320E82E83982F872F762F662779
:101F40007F83688764E0CE0105960E94700F882326
:101F500069F081E02896CDBFDEBFDF91CF911F9160
:101F60000F9108952AEC2D838E83EACF64E070E010
:101F7000CE0101960E943E0F8111EBCF49815A811B
:101F80006B817C81F801408351836283738328963F
:101F9000CDBFDEBFDF91CF911F910F91089521E05A
:101FA000209347280E94880F811103C01092472870
:101FB000089581E00895CF93DF93CDB7DEB72897DA
:101FC000CDBFDEBFE1E0E0934728613371058105B5
:101FD000910510F5E3ECE983E0E8EA83FE0133962E
:101FE000A7E0608351834283338324836A2FCE0129
:101FF00001960E94700F882339F081E02896CDBFAA
:10200000DEBFDF91CF910895109247282896CDBF6B
:10201000DEBFDF91CF910895E9ECE9838A837B836A
:10202000FE013496A8E0DDCFE0914728EE2311F0C1
:1020300081E008950C94DB0F9F92AF92BF92CF92F4
:10204000DF92EF92FF920F931F93CF93DF93CDB761
:10205000DEB72897CDBFDEBF6A018901FE01319648
:1020600097E0DF011D929A95E9F797EC998390919B
:10207000472891113FC091E09093472821303105C6
:1020800009F44AC0212F902F8A837B836C832E838F
:102090009F8367E0CF010E94700FB82E81112AC084
:1020A00081EF888701151105E1F193EF992E22EF59
:1020B000A22E0CC0B701C6010E9433128823D1F0B2
:1020C000A886CE0CDF1C0115110559F178010130ED
:1020D000B0E21B0718F0E12C80E2F82E0E191F0960
:1020E00009F4988661E070E0CE0108960E943312F0
:1020F0008111E0CFBB24B3948B2D2896CDBFDEBFDA
:10210000DF91CF911F910F91FF90EF90DF90CF90D3
:10211000BF90AF909F90089592E020E002E010E021
:10212000B3CF83EC0E94080F8111E4CF10924728AF
:10213000E3CFEF92FF920F931F93CF93DF93CDB72F
:10214000DEB72997CDBFDEBFFE01319697E0DF01F4
:102150001D929A95E9F798EC9983909147289111EF
:102160001DC089017A01982F81E0809347289A83C6
:102170007B836C8321303105E1F01E832F8367E080
:10218000CF010E94700F811109C0B801C7010E94E0
:102190003E0F811103C01092472801C081E02996AB
:1021A000CDBFDEBFDF91CF911F910F91FF90EF90D8
:1021B000089582E08F8367E0CF010E94700F811144
:1021C000EDCF62E070E0CE0108960E943E0F988548
:1021D000F7019083DECF1092472869E08EEF9CE8EC
:1021E0000C94700F81E08093472880E00895CF938E
:1021F000DF9300D000D0CDB7DEB72091472822234F
:1022000049F060E070E0CB012496CDBFDEBFDF91E6
:10221000CF91089521E020934728AE014F5F5F4F93
:102220000E94880F8111EDCF1092472869817A8131
:102230008B819C812496CDBFDEBFDF91CF91089525
:1022400020914728222311F081E008950C94CF0FAC
:102250004F925F926F927F928F929F92AF92BF92B6
:10226000CF92DF92EF92FF92CF93DF9300D000D016
:10227000CDB7DEB7E0914728EE2399F08E2F249654
:10228000CDBFDEBFDF91CF91FF90EF90DF90CF9079
:10229000BF90AF909F908F907F906F905F904F9086
:1022A000089549015A016B017C01AE014F5F5F4FF8
:1022B0000E94CF0FE091472849815A816B817C8130
:1022C0002A013B01482059206A207B208414950470
:1022D000A604B70499F29A01AB01282939294A29A1
:1022E0005B2929833A834B835C83E111C7CFC70104
:1022F000B6010E94DB0FE0914728C0CF8F929F92DA
:10230000AF92BF92CF92DF92EF92FF920F931F9303
:10231000CF93DF9300D000D0CDB7DEB7E091472850
:10232000EE2389F08E2F2496CDBFDEBFDF91CF91B3
:102330001F910F91FF90EF90DF90CF90BF90AF90E3
:102340009F908F90089549015A016B017C01AE0165
:102350004F5F5F4F0E94CF0FE091472849815A811C
:102360006B817C818A019B01082119212A213B2153
:10237000012B022B032BB1F280949094A094B09483
:102380009A01AB01282139214A215B2129833A8313
:102390004B835C83E111C6CFC701B6010E94DB0FFE
:1023A000E0914728BFCF809147280895B29905C092
:1023B00080912B2D8F5F80932B2D089581E090913C
:1023C0002B2D911101C080E00895882379F0809130
:1023D000B204887F8093B20480912B2D811108C0B4
:1023E0008091B204887F83608093B20481E0089575
:1023F000815080932B2DF4CF10922B2D86ED91E1FF
:102400000E944508789481E00895CF92DF92EF9280
:10241000FF92611571058105910571F0DC01CB0119
:102420006C017D0181E090E00E948B1E81E0C81A62
:10243000D108E108F108B1F7FF90EF90DF90CF905D
:10244000089588E08093A504089588E08093A60409
:10245000089582E080930604089582E08093050445
:10246000089581E00895AF92BF92CF92DF92EF92EC
:10247000FF920F931F93CF93DF935C016B01892B26
:1024800009F440C0E091EC8CF091ED8C099580E866
:1024900080930604E090F28CF090F38C80E8C816EC
:1024A000D10490F18601E50160E870E0CE01F7010A
:1024B000099500581109C058DF4F00381105A0F7E1
:1024C000B6016F777727C6018058910980788058C8
:1024D0009F4FA80EB91EC501F701099580E88093AA
:1024E0000504E091EA8CF091EB8C099581E0DF9195
:1024F000CF911F910F91FF90EF90DF90CF90BF9001
:10250000AF90089580E0F3CFB601E5CFAF92BF92D0
:10251000CF92DF92EF92FF920F931F93CF93DF93AF
:102520005C016B01892B09F440C0E091EC8CF091C7
:10253000ED8C099580E880930604E090F48CF0908F
:10254000F58C80E8C816D10490F18601E50160E8B9
:1025500070E0CE01F701099500581109C058DF4F0E
:1025600000381105A0F7B6016F777727C6018058AC
:102570009109807880589F4FA80EB91EC501F701B8
:10258000099580E880930504E091EA8CF091EB8C4A
:10259000099581E0DF91CF911F910F91FF90EF900E
:1025A000DF90CF90BF90AF90089580E0F3CFB60159
:1025B000E5CF81E0089508958091332D91E0980F43
:1025C0009093332D811104C080912C2D811102C074
:1025D00080E008950E94CB158111FACF84EF089511
:1025E0008091332D882339F081508093332D8823B7
:1025F00011F080E0089580912C2D8823D1F30E9462
:102600008D158111F6CF84EF08951092332D10921D
:102610002C2D80E008952F923F924F925F926F92FF
:102620007F928F929F92AF92BF92CF92DF92EF9262
:10263000FF920F931F93CF93DF93CDB7DEB72C9705
:10264000CDBFDEBF962F9F779A8789870115110529
:1026500009F4C2C0F7013896EC0DFD1DEB87FC872D
:10266000ED33F64008F04BC03601680149015A01CC
:10267000162F082F0E94DC12811141C02B853C854A
:10268000C901A0E0B0E0DC0199278827802B9C01DC
:10269000AD01312B2D833E834F8358876CE870E169
:1026A00080E090E00E94141022E030E040E050E032
:1026B00068E770E180E090E00E94141019821A82AD
:1026C0001B821C8207EE13E00BC08D8181FF2EC0A0
:1026D000053F81E0180708F488C00150110978F11E
:1026E000AE014B5F5F4F68E770E180E090E00E94D1
:1026F00020110E94D311882341F30E94F0128FEF22
:102700002C96CDBFDEBFDF91CF911F910F91FF902F
:10271000EF90DF90CF90BF90AF909F908F907F9081
:102720006F905F904F903F902F900895AE014F5F54
:102730005F4F60E074E085E190E00E9420110E940C
:10274000D31181114EC029803A804B805C802114C6
:1027500031044104510409F444C028E030E0AE01E2
:10276000475F5F4FC201B1010E941C1088E0280E34
:10277000311C411C511CA114B10431F09401A5017C
:10278000C201B1010E941C10C114D10451F0C20158
:10279000B101660D771D811D911D9701A6010E9453
:1027A0001C1089819A81AB81BC81880F991FAA1F57
:1027B000BB1F880F991FAA1FBB1F9C01AD01226080
:1027C0006CE670E180E090E00E9414100E94F0122C
:1027D0000E94D311819594CFF9013896EB87FC873D
:1027E0003FCF0E94F0128DEF8BCF61E070E080E070
:1027F00090E00E94051271CFCF92DF92EF92FF928C
:102800000F931F93C12CD12CE12CF12C00E010E090
:102810000E940B131F910F91FF90EF90DF90CF90CC
:102820000895CF93DF93CDB7DEB72897CDBFDEBF36
:102830000E94DE11811107C080E02896CDBFDEBF67
:10284000DF91CF910895AE014B5F5F4F60E770E17C
:1028500080E090E00E942011811182C08D819E81D4
:10286000AF81B88580FF7CC09C01AD012E7F2D8398
:102870003E834F83588760E770E180E090E00E94DC
:10288000141081116DC08D819E81AF81B885B69580
:10289000A79597958795B695A795979587959F70D6
:1028A00080932D2D90932E2D892B09F460C04FE23B
:1028B0005DE264E870E180E090E00E942011811107
:1028C0004FC060912F2D7091302D8091312D9091BE
:1028D000322D24E030E0AE014F5F5F4F0E9499102F
:1028E00081113EC06B817C8180912D2D90912E2D88
:1028F000861B970B0597E8F5E9818FEF8E0F8730E0
:1029000078F580912F2D9091302DA091312DB0919F
:10291000322D9C01AD01285F3F4F4F4F5F4F6850F4
:102920007109F0E0EE0FFF1FEB5FF2470190F081BD
:10293000E02D8A81099581E00E94E51122E030E0D6
:1029400040E050E060E770E180E090E00E942811F4
:1029500080E00E94E5110E94D311882309F46CCF16
:1029600084EF2896CDBFDEBFDF91CF9108958EEF23
:1029700064CF8AEF62CF8F929F92AF92BF92CF9235
:10298000DF92EF92FF92E0912D2DF0912E2DE21724
:10299000F30748F1C0902F2DD090302DE090312DCD
:1029A000F090322D6C157D058E059F05E0F0CE0E62
:1029B000DF1EE11CF11C4B015C01820E931EA11C69
:1029C000B11CC814D904EA04FB0468F00E949910F1
:1029D000811109C0FF90EF90DF90CF90BF90AF9032
:1029E0009F908F90089584EFF5CFCF93DF9300D021
:1029F00000D0CDB7DEB7AE014F5F5F4F64EF73E13C
:102A000080E090E00E942011882349F060E070E0AF
:102A1000CB012496CDBFDEBFDF91CF91089544E373
:102A20005DE260E070E180E090E00E9420118111A1
:102A3000EDCF8091342D9091352DA091362DB09110
:102A4000372D803A22E0920720E1A207B105C9F0B4
:102A5000803B22E0920720E1A207B10521F1A07F8F
:102A6000BC01CD0185606093342D7093352D80932A
:102A7000362D9093372D2496CDBFDEBFDF91CF91B9
:102A8000089589819A81AB81BC810197A105B10527
:102A900029F061EA72E085E190E0E5CF60EA72E05A
:102AA00085E190E0E0CF89819A81AB81BC81833060
:102AB0009105A105B10549F00497A105B10551F0B3
:102AC00062EB72E085E190E0CECF60EB72E085E1F1
:102AD00090E0C9CF61EB72E085E190E0C4CF20E0E7
:102AE00031E040E050E068E074E180E090E00E9476
:102AF0002811882319F090E0892F089520E030E014
:102B000041E050E060E07AE180E090E00E9428112E
:102B100091E08111F0CF892F0895CF93DF9300D0FA
:102B200000D0CDB7DEB70E94D311882321F00EC0AC
:102B3000898180FF12C0AE014F5F5F4F60E170E09E
:102B400080E090E00E942011882391F380E0249699
:102B5000CDBFDEBFDF91CF91089522E030E040E0AD
:102B600050E061E070E080E090E00E947E1121E0A2
:102B700030E040E050E06BE070E080E090E00E94E8
:102B80007E110E94D31191E089272496CDBFDEBF2C
:102B9000DF91CF9108951F93CF93DF9300D000D0A2
:102BA000CDB7DEB721E030E040E050E06BE070E010
:102BB00080E090E00E94281122E030E040E050E008
:102BC00061E070E080E090E00E9428110E94D31143
:102BD000811117C014E0AE014F5F5F4F6FE070E0EE
:102BE00080E090E00E94201181110BC0898182FD5C
:102BF00010C062E070E080E090E00E940512115089
:102C000051F780E02496CDBFDEBFDF91CF911F91B9
:102C1000089581E0F7CF21E030E040E050E068E146
:102C200071E180E090E00E942811882319F090E083
:102C3000892F089520E034E040E050E060E074E146
:102C400080E090E00E947E1191E08111F0CF892F09
:102C500008954F925F926F927F928F929F92AF9260
:102C6000BF92FF920F931F93CF93DF9300D000D0BA
:102C7000CDB7DEB7F82EB62E29013A0120E030E0BC
:102C8000A9016CE070E0CB010E94141020E030E05C
:102C9000A9016CE870E180E090E00E94141020E04F
:102CA00030E0A9016CEA77E082E090E00E94141025
:102CB00021E030E040E050E068E171E180E090E048
:102CC0000E942811882391F080E02496CDBFDEBFBA
:102CD000DF91CF911F910F91FF90BF90AF909F9088
:102CE0008F907F906F905F904F90089520E034E038
:102CF00040E050E060E074E180E090E00E94281144
:102D00008111E2CF64E170E180E090E00E94F71071
:102D100097FFF8CF6CEB77E082E090E00E94F7102D
:102D200060FF7AC0F110A4C0BB2009F49CC090E8F9
:102D3000892E99249394A12CB12CA30192016CE8C3
:102D400070E180E090E00E9414106091342D709149
:102D5000352D8091362D9091372D611571058105A6
:102D6000910509F494C0DC01CB019F70AA27BB2711
:102D7000803A9340A105B10560F0689481F809C0DC
:102D800089819A81AB81BC8188169906AA06BB0607
:102D900099F0A501940160EA74E180E090E00E945E
:102DA0001410AE014F5F5F4F60EA74E180E090E085
:102DB0000E942011882321F321E63FE242E55FEEE5
:102DC0006CE070E0CB010E94141000ED17E00FC022
:102DD0006CE870E180E090E00E94F7106633764284
:102DE00083459240A1F10150110909F46DCF62E0D1
:102DF00070E080E090E00E940512FF2049F36CEA49
:102E000077E082E090E00E94F710633C714C8D45C2
:102E1000974D49F781E059CF0FEC17E004C00150FE
:102E2000110908F47FCF61E070E080E090E00E943B
:102E300005126CE070E0CB010E94F7106E39704D06
:102E40008D4A904161F7012B09F06CCF3DCF20E016
:102E500030E0A9016CE870E180E090E00E9414107D
:102E60000E946F1532CF812C912C5401939465CF21
:102E70002DE735ED4CE15CE36CEA77E082E090E031
:102E80000E941410812C912C5401939456CF0E94CF
:102E9000F51469CFCF93DF93D82F0E94311281119F
:102EA00005C0C1E08C2FDF91CF9108950E942512BB
:102EB0000E94291262E370E080E090E00E94051217
:102EC0000E9421126AE070E080E090E00E9405120A
:102ED0000E942D126AE070E080E090E00E940512EE
:102EE0000E94EB10C82F8111DCCFDD23D9F20E94A4
:102EF0000B168823B1F220E030E0A90160E073E016
:102F000082E090E00E941410CDCF0E942916882301
:102F100011F080E008950E94D9120E94F21081E021
:102F20000895FC01892B59F18081882341F1DF014B
:102F30000D900020E9F71197AE1BBF0B9197F8F4A5
:102F400081A181508E30D8F4DF01AF5BBF4F8C91EF
:102F5000882369F087AD813041F0833091F0823071
:102F600071F483A18850893350F480E0089511965C
:102F70008C918111EFCF11968C918111EBCF84EF61
:102F8000089582A181508430D0F783A18F7E8A304A
:102F9000B1F784A1882399F3B496DF010D90002046
:102FA000E9F71197AE1BBF0B5B9748F780E00895D8
:102FB0000F931F93CF938C01BC0181E00E943519C0
:102FC000C82F0E94F012CC2329F08C2FCF911F9193
:102FD0000F910895C801CF911F910F910C94011981
:102FE0008F929F92AF92BF92FF920F931F93CF93B6
:102FF000DF93CDB7DEB7CC56D109CDBFDEBFF82EFB
:1030000049015A01809148288E3369F008E418E29A
:10301000F81203C019C08F15B9F00D5F1F4FF801EA
:1030200080818E33C1F7F0E2FF1619F1C459DF4FEA
:10303000CDBFDEBFDF91CF911F910F91FF90BF9069
:10304000AF909F908F900895D80111962D913C914B
:10305000129721153105B9F5E091392DF0913A2DEE
:10306000309709F360E070E08F2D0995F0E2FF12D0
:10307000DDCF28E030E0AE014B595F4FC501B40110
:103080000E94BB148111D2CFAB962EAD3FADAB9752
:10309000A7964EAD5FADA797C501B401685F7F4F9E
:1030A0008F4F9F4F0E94BB148111C0CFE091392DEB
:1030B000F0913A2D309709F4B9CFBE016B597F4F8B
:1030C00080E20995B3CFAE014F5F5F4FC501B401F8
:1030D0000E94BB148111AACFE091392DF0913A2DB5
:1030E000309709F4A0CFD80111968D919C91129739
:1030F000892B09F4B7CFB1E1FB1631F0BE016F5F48
:103100007F4F8F2D09958FCF1092382D8981809315
:103110003C2DF4CFCF93DF93CDB7DEB7A697CDBFCD
:10312000DEBF0097A9F1FC01808191818093392D48
:1031300090933A2D1092382D21E633E140E353E18C
:1031400060E080E00E94851781111BC082E08093BF
:103150003B2D0E940513811114C00E94DC128823AC
:1031600031F0A696CDBFDEBFDF91CF910895CE019D
:1031700001960E94D817A696CDBFDEBFDF91CF91F2
:1031800008958BEFA696CDBFDEBFDF91CF91089556
:1031900081EFE7CFCF93DF93EC0180E00E944A17E5
:1031A000811108C081E080933B2DCE01DF91CF914A
:1031B0000C948A1884EFDF91CF9108950C94111428
:1031C000CF92DF92EF92FF920F931F938C010E9498
:1031D0009117811114C0C12CD12C84E9E82EF12C57
:1031E00020E030E040E050E066EC81E00E940B130C
:1031F0001F910F91FF90EF90DF90CF90089584EF93
:10320000F7CFFC01892B69F1248130E0322F22278E
:1032100086818F70A901482B258180E1289F90012C
:1032200011243327242B352B678170E0762F6627F6
:1032300081858F70682B408580E1489FA001112413
:103240005527CB01842B952B2115310551F0009783
:1032500041F08236934138F42136334120F080E04A
:10326000089581EF089583EF0895FF920F931F93C0
:10327000CF93DF93CDB7DEB72C97CDBFDEBF6115FF
:10328000710509F44CC08B01F82E86E2FB01119206
:103290008A95E9F7AE01475F5F4F68E070E08CE028
:1032A00090E00E942011811108C089859A85AB8524
:1032B000BC850097A105B10551F484EF2C96CDBFD4
:1032C000DEBFDF91CF911F910F91FF900895BC0158
:1032D000CD01836028E030E0AE014F5F5F4F0E9478
:1032E00099108111EACF8D819E81AF81B885AA277F
:1032F000BB270097A105B10501F3FF2059F0BC01E0
:10330000CD01836026E230E0A8010E949910882355
:10331000A9F2D3CF60E070E083E090E0F3CF81EFDB
:10332000CDCF2F923F924F925F926F927F928F926A
:103330009F92AF92BF92CF92DF92EF92FF920F9344
:103340001F93CF93DF93CDB7DEB7C455D109CDBF5F
:10335000DEBF8B0169017A01813409F45EC08435D6
:1033600009F45BC0823409F461C1833409F471C08B
:10337000843409F42FC18B3409F42CC18A3409F444
:10338000A3C1863409F4D2C0883409F46CC18D34E9
:1033900009F4CCC0853409F4B3C1873409F466C19B
:1033A0008C3409F4ADC1823509F524E130E0AE0179
:1033B0004F5F5F4FC701B6010E94BB14811116C059
:1033C0004D815E816F81788580913F2D9091402D58
:1033D000A091412DB091422D481759076A077B07EC
:1033E00009F4E6C11092432D1092442DCC5ADF4FC0
:1033F000CDBFDEBFDF91CF911F910F91FF90EF9076
:10340000DF90CF90BF90AF909F908F907F906F9004
:103410005F904F903F902F90089524E030E0AE01F0
:103420004F5F5F4FC701B6010E94BB148111DECF11
:103430008A8126968FAF2697E091482DF091492DED
:103440003097A1F2AE014B5B5F4F61E08981099536
:10345000CDCF8E010B5B1F4F2CE030E0A801C701E0
:10346000B6010E94BB148111C1CFD80119968C916D
:10347000199787FD39C0482F082E000C550B189658
:103480002C9118973BE02303F0011124E45BF24DEB
:103490009185349FF001359FF00D1124E45BF24DCE
:1034A000918791E090871A962D913C911B97285017
:1034B00031092683378360914A2D70914B2D9B01F2
:1034C0002F5F3F4F19F49B012E5F3F4F20934A2DF2
:1034D00030934B2D9BE0949FF001959FF00D1124AC
:1034E000E45BF24D24833583898382E090E08A8314
:1034F0009B83F801828193818C839D838481958154
:10350000A681B7818E839F83A887B987E091482DD4
:10351000F091492D309709F469CFAE014F5F5F4FAD
:1035200064E0D80118968C91099560CF96E0A92E99
:1035300020E130E0AE014B5B5F4FC701B6010E9456
:10354000BB14811153CF6296BFAC629765962EADC6
:103550003FAD6597AB2DBBE0AB02F0011124E45BFE
:10356000F24D12862F964EAD5FAD2F9761966EADE0
:103570007FAD619729968EAD9FAD299789879A87F0
:103580002D968CAD9DADAEADBFAD2D978B879C8735
:10359000AD87BE87848195812817390709F026CF2A
:1035A000141615062CF44A014017510708F4AAC056
:1035B0004B835C8319821A82E091482DF091492D4A
:1035C000309709F413CFAE014F5F5F4F6A2D8B2DFB
:1035D00009950CCF24E030E0AE014F5F5F4FC7018B
:1035E000B6010E94BB14811101CF89818E010B5B52
:1035F0001F4FF80180839A81918391110CC09BE049
:103600008902F0011124E45BF24D2B813C812850AA
:10361000310926833783E091482DF091492D309769
:1036200009F4E4CEA80165E00995E0CE24E030E09D
:10363000AE014F5F5F4FC701B6010E94BB148111FD
:10364000D5CE8A8126968FAF2697E091482DF091AE
:10365000492D309709F4CACEAE014B5B5F4F62E053
:1036600089810995C3CE89E0A82E62CF18E028E0B1
:1036700030E0AE014F5F5F4FC701B6010E94BB143F
:103680008111B4CE89814D815E812B813C81279649
:103690002EAF3FAF27979BE08902F0011124E45B36
:1036A000F24D248135814217530709F09FCEE091F6
:1036B000482DF091492D309709F498CEAE014B5B1F
:1036C0005F4F612F099592CE24E430E0AE014F5F49
:1036D0005F4FC701B6010E94BB14811187CEE091F4
:1036E000462DF091472D309709F480CE25964CADAC
:1036F0005DAD6EAD7FAD2597CE010196099576CE75
:1037000017E0B5CF80819181892B09F46FCE82813A
:103710009381892B09F46ACE8085813009F066CEC9
:1037200026013701460E571E611C711C4D835E83B6
:103730007F016F01E2E0CE0ED11C1701F8E02F0EE1
:10374000311CD6010D911C918016910608F484015C
:10375000F701408151819801C301B2010E94BB145D
:10376000811144CED7018D919C9189839A830B83DB
:103770001C838D819E81801B910B8D839E83E091A4
:10378000482DF091492D309731F0AE014F5F5F4FDA
:103790006A2D8B2D0995400E511E611C711CF10183
:1037A0008081882309F422CE801A910A51F61ECE18
:1037B000E091432DF091442D309709F413CE2985E3
:1037C0003A854B855C8569817A818B819C810989E9
:1037D000099508CE8091452D8111089589E7ECE483
:1037E000FDE2DF011D928A95E9F781E08093452D86
:1037F00010924A2D10924B2D08958093482D90934E
:10380000492D6093462D7093472D0895FF920F9395
:103810001F93CF93DF9300D000D0CDB7DEB70297D0
:1038200029F4613071F0623009F44EC01FEF812F2E
:103830002496CDBFDEBFDF91CF911F910F91FF90F6
:10384000089520913E2D37E08BE0F82E07E010E040
:10385000822F90E0F89EF001F99EF00D1124E45BB8
:10386000F24D0196B8010E9474219085992309F4C4
:1038700046C03150282F61F780933E2D1FEF8BE01B
:10388000DF011D928A95E9F781E0808720914A2D1A
:1038900030914B2DC901019611F4C9010296809314
:1038A0004A2D90934B2D8483958340FFC0CF19837D
:1038B00081E2818724E030E0AE014F5F5F4F60E539
:1038C00082E00E94FC13B3CF20913D2D34E08BE0C9
:1038D000289FF0011124E756F24D822F90E00196C7
:1038E000837099275085552371F03150282F79F72F
:1038F00080933D2D1FEF309709F0C1CF98CF809373
:103900003E2D122FBCCF80933D2D17E0120FF3CF29
:10391000CF93DF93CDB7DEB72C97CDBFDEBFFB01D2
:1039200087FD3FC03097E9F1282F082E000C330B9C
:103930009BE08902D0011124A45BB24D18969C91A2
:103940001897992371F1442361F119969C9190FD88
:1039500025C064E4898788E0DE01119601900D920C
:103960008A95E1F78BE0829FF001839FF00D11248F
:10397000E45BF24D848195818B879C872CE030E05D
:10398000AE014F5F5F4F82E00E94FC1381110BC0BC
:103990002C96CDBFDEBFDF91CF9108959A876BE45F
:1039A000D9CF8AEFF5CF87EFF3CFCF92DF92EF92A7
:1039B000FF920F931F93CF93DF93CDB7DEB760973E
:1039C000CDBFDEBF8B0187FD4CC0672B09F449C01A
:1039D000493795E0590708F044C0282F082E000CFD
:1039E000330B9BE08902F0011124E45BF24D9085DA
:1039F0009923B9F189834B835C83648175816D87D9
:103A00007E87873044F590E5C92ED12C8BE0829FCC
:103A1000F001839FF00D1124E45BF24D818580FF5E
:103A20001EC0C680D7806CEC7A0120E130E0AE0188
:103A30004F5F5F4F82E00E940B13811114C06096AC
:103A4000CDBFDEBFDF91CF911F910F91FF90EF901F
:103A5000DF90CF90089584E4C82ED12CD7CF65ECA9
:103A6000E3CF8AEFECCF82EFEACFCF92DF92EF92F3
:103A7000FF920F931F93CF93DF93CDB7DEB72897B5
:103A8000CDBFDEBF87FD5FC06115710509F45BC066
:103A90004115510509F457C0A82F082E000CBB0B87
:103AA0009BE08902F0011124E45BF24D908599239B
:103AB00009F449C0608371834283538392859111D5
:103AC0002AC091E09287918590FD32C066E401158D
:103AD00011052105310591F5CC24CA94DC2C760121
:103AE000C982DA82EB82FC828D838BE08A9FF001AF
:103AF0008B9FF00D1124E45BF24D848195818F83BF
:103B0000988728E030E0AE014F5F5F4F82E00E946F
:103B1000FC1381111AC080E02896CDBFDEBFDF9173
:103B2000CF911F910F91FF90EF90DF90CF9008956C
:103B30006DE4011511052105310571F209831A8320
:103B40002B833C83D1CF8AEFE7CF82EFE5CF0F9372
:103B50001F93CF93DF9300D000D0CDB7DEB787FDA2
:103B600038C0082F082E000C110B9BE08902F001D1
:103B70001124E45BF24D9085992359F18983848166
:103B800095818B839C83818580FD1FC069E424E03F
:103B900030E0AE014F5F5F4F82E00E94FC13811165
:103BA00016C09BE0909FF001919FF00D1124E45B03
:103BB000F24DDF011D929A95E9F72496CDBFDEBF45
:103BC000DF91CF911F910F9108956EE4E0CF87EFC1
:103BD000F4CF8AEFF2CF1F920F920FB60F921124FB
:103BE0008F9381E080938A008F910F900FBE0F908A
:103BF0001F90189540E068ED88E790E00E94170953
:103C000040E068ED8CE790E00E94170940E068ED25
:103C100080E790E00E94170941E068ED81E690E0BE
:103C20000E94170940E068ED80E690E00E941709C5
:103C300040E068ED82E690E00E94170980E0089578
:103C40000E94A30740E068ED80E890E00E94170919
:103C5000E0E8F0E01186108640E068ED80E091E059
:103C60000E94170940E068ED80E590E00E94170986
:103C70000E94FA1D0E94490D0E94A70E0E941E0A72
:103C80000E94A9080E94080E0E94FB090E949D083C
:103C90000C944A06E6E6F4E038E0308383E294EFE1
:103CA0000197F1F700C0000024E02083A3E2B4EF05
:103CB0001197F1F700C0000092E09083A3E2B4EF07
:103CC0001197F1F700C0000081E08083E3E2F4EF98
:103CD0003197F1F700C00000E5E6F4E03083A3E29D
:103CE000B4EF1197F1F700C000002083A3E2B4EF16
:103CF0001197F1F700C000009083A3E2B4EF119791
:103D0000F1F700C000008083E3E2F4EF3197F1F7B0
:103D100000C00000089507C0E3ECF9E03197F1F727
:103D200000C0000001970097B9F708958091C92D50
:103D30008F5F8093C92D60E07DE780E090E008957B
:103D40001092C52D1092C62D82E0809365040895CF
:103D50008C32F1F0823359F5FB0183811F928F93EE
:103D600082811F928F9381811F928F9380811F92F6
:103D70008F9385E19DE89F938F930E943B2281E082
:103D80008093C82D8DB79EB70A968DBF9EBF0895AC
:103D9000FB018081813061F0811109C087E79DE8D6
:103DA0000E9451221092C82D84E0809365040895EA
:103DB00082E49DE80E94512284E080936604089585
:103DC000CF92DF92FF920F931F93CF93DF93CDB7E4
:103DD000DEB7C05BD109CDBFDEBF0E94FC1188EA0F
:103DE0009EE1CB56DF4F88839983C559D040CE01E1
:103DF0008B569F4F0E94CA18882361F0C055DF4F31
:103E0000CDBFDEBFDF91CF911F910F91FF90DF906B
:103E1000CF90089547E050E0BE0166557F4F80E89F
:103E200090E00E947C0EBE0166557F4F8EEC9AE8B2
:103E30000E94ED21892B09F4DDC0F12C00E31EE284
:103E4000FE01E056FF4F6F018091702E81110FC06F
:103E5000FF2039F00E944A1E8091C92D8C3308F052
:103E600050C00E94B5068091702E882389F381E7A7
:103E70009EE20E943606C6010E94360640E450E0EB
:103E80006BE77EE280E090E00E94870E8130B1F027
:103E900040E450E060E37EE280E490E00E94870E20
:103EA0008130C1F48093660488E08093660482E0E8
:103EB0008093650484E080936604FFCF809366045A
:103EC00088E08093650482E08093660484E08093B8
:103ED0006604FFCF47E050E06EEC7AE880E890E0BF
:103EE0000E94870E813009F0DCC08093660488E070
:103EF0008093660482E08093660484E08093650486
:103F0000FFCF8DEB9DE80E94512281E79EE20E9447
:103F10003606C6010E9436068091702E8111A7CF09
:103F20008091C92D8C3308F0A2C06BE77EE2CE01F0
:103F300001960E94F621FF24F394FAA222961FAE66
:103F4000229782E021968FAF219760E37EE2CE0137
:103F50008A5B9F4F0E94F621F80101900020E9F74B
:103F60003197E053FE42ECA380EC23968FAF23976A
:103F700088EA24968FAF24978CE025968FAF2597FB
:103F80002696FFAE269726968CAD9DADAEADBFAD05
:103F90002697C757DF4F88839983AA83BB83C95865
:103FA000D040C357DF4F88839983AA83BB83CD5802
:103FB000D0408FEFCF56DF4F8883C159D040CE56C7
:103FC000DF4F8883C259D040CD56DF4F8883C35915
:103FD000D040CC56DF4F1882C459D0400E94B7025F
:103FE000CE0101960E94E018F092650488E080936B
:103FF000660404CF40E450E06BE77EE280E090E0AE
:104000000E947C0E40E450E060E37EE280E490E0B9
:104010000E947C0E8BE79EE29F938F9382E69CE842
:104020009F938F930E943B2200E31EE21F930F9306
:104030008FEA9DE89F938F930E943B228DEB9DE832
:104040000E9451226E0180EAC80ED11C86E99EE1D1
:10405000F6018083918340E05DE760E070E0C60197
:104060000E944E06CDBFDEBFFF24F394EDCE40E4A8
:1040700050E06BE77EE280E090E00E947C0E40E43E
:1040800050E060E37EE280E490E00E947C0E8BECE6
:104090009DE80E9451228091702E882309F445CF1B
:1040A000E6CE88ED9DE80E9451223FCFCF93DF936B
:1040B000CDB7DEB7E197CDBFDEBF1092702E109264
:1040C000C92D2FE78DE89BE5215080409040E1F716
:1040D00000C0000088EDA89584BF80910001807F1A
:1040E000809300010E94201E0E944A1E86EE9DE8D9
:1040F0000E9451220E945203789481E080936604CA
:1041000082E090E089839A8380E090E58B839C83B2
:1041100080EC98EAACE0B4E68D839E83AF83B887E9
:104120001FA6CE0101968DA79EA7C09689A79AA724
:1041300001978BA79CA73BEB432E3EE2532E4A8A66
:104140005B8A83EA92E38F8B988F8BE896E3898F63
:104150009A8F87EC9DE28D8F9E8F80EA9EE18F8FF4
:1041600098A30E94E01E0E94412110E045E7A42E82
:1041700048E2B42E52E0352E64E6862E912C75EF7F
:10418000E72E7DE8F72E3201CC24C394D12CF3E046
:104190002F2E80E090E00E94DE180E94B5068091EC
:1041A000C82D8130B1F78091C52D9091C62D892BF6
:1041B00081F78091C72D30926604AC8ABD8A813028
:1041C00019F4113009F447C00E9449218C010E9462
:1041D00046219F938F93C80117FD38C0B4010E94F8
:1041E00074219F938F93980136952795369527953F
:1041F000ABE7B4E10E948821969587959F938F93B2
:10420000FF92EF927F926F920E948122398AF2018F
:1042100001900020E9F73197EB5BFE42EE8BBE0187
:104220006F5E7F4FCE0189960E94090240E055E6FD
:1042300064E070E0CE014F960E944E06C092C52DFC
:10424000D092C62DCDBFDEBF11E0A3CF882799271E
:10425000801B910BC3CF298ABE016F5E7F4FCE01B9
:1042600089960E94090240E055E664E070E0CE01C4
:104270004F960E944E06C092C52DD092C62D10E0DA
:1042800088CF43E068E088E10C94060785E00C9451
:10429000BC0E65E088E10E943307A0E0B0E033E1A6
:1042A000880F991FAA1FBB1F3A95D1F79C01AD013A
:1042B00063E155954795379527956A95D1F7A4E61B
:1042C000B0E00E94972197FD0AC0DC01CB0124E0F9
:1042D000B595A795979587952A95D1F70895615F2C
:1042E0007F4F8F4F9F4FF1CF97FB072E16F400940F
:1042F00007D077FD09D00E94A22107FC05D03EF42B
:10430000909581959F4F0895709561957F4F089581
:10431000A29FB001B39FC001A39F700D811D112406
:10432000911DB29F700D811D1124911D08950E9451
:104330008821A59F900DB49F900DA49F800D911D85
:1043400011240895AA1BBB1B51E107C0AA1FBB1F64
:10435000A617B70710F0A61BB70B881F991F5A9511
:10436000A9F780959095BC01CD010895FC0188279F
:104370009927E89421912032E9F3293010F02E306A
:10438000C8F32B3241F02D3239F4689404C00E94F6
:104390003322820F911D219120532A30C0F31EF445
:1043A000909581959F4F089546E858E20E940C220F
:1043B0000895FB01DC0102C001900D924150504074
:1043C000D8F70895FC018191861721F08823D9F749
:1043D000992708953197CF010895FB01DC018D9154
:1043E000019080190110D9F3990B0895FB01DC01AC
:1043F00001900D920020E1F70895FB01DC0141508E
:10440000504048F001900D920020C9F701C01D9264
:1044100041505040E0F70895FA01A191B081009712
:1044200019F41097E1F0CD01DC01CD010D900020D1
:1044300011F4C00113C0FB012191222319F02015B2
:10444000D9F7F3CFFB012191201519F41E92119693
:1044500006C02223C1F70D900020A1F7D001FA0178
:10446000A193B08308957AE0979F902D879F802D28
:10447000910D11240895A0E0B0E0E1E4F2E20C9483
:104480004425AE014B5F5F4FFA0161917191AF011D
:1044900080918E3690918F360E94A322E2E00C9498
:1044A0005D250F931F93CF93DF93E0918E36F091AC
:1044B0008F36238121FF1BC08C01D0E0C0E0F801C2
:1044C00081918F0160918E3670918F36DB01189645
:1044D000ED91FC911997882331F00995892B79F397
:1044E000DFEFCFEFECCF8AE00995892B19F08FEF42
:1044F0009FEF02C08D2F9C2FDF91CF911F910F91C5
:104500000895AEE0B0E0E7E8F2E20C9442250D89B0
:104510001E8986E08C8309831A838FEF9FE78D8342
:104520009E83AE01475E5F4F6F89788DCE01019605
:104530000E94A322EF81F885E00FF11F10822E96D2
:10454000E4E00C945B25ABE0B0E0E9EAF2E20C9425
:1045500034256C017B018A01FC011682178283815C
:1045600081FFCCC1CE0101963C01F6019381F70198
:1045700093FD859193FF81917F01882309F4BAC14E
:10458000853239F493FD859193FF81917F018532C6
:1045900029F4B60190E00E949A24E7CF912C212CB7
:1045A000312CFFE1F315D8F08B3279F038F48032FA
:1045B00079F08332A1F4232D20611DC08D3261F08A
:1045C000803369F4232D216016C0832D8260382E3C
:1045D000E32DE4603E2E2AC0F32DF8601DC037FCA9
:1045E0002DC020ED280F2A3040F08E32B9F436FC71
:1045F00081C1232D2064322E19C036FE06C08AE008
:10460000989E200D1124922E11C0EAE02E9E200DBE
:104610001124222EF32DF0623F2E08C08C3621F497
:10462000832D8068382E02C0883641F4F70193FD4F
:10463000859193FF81917F018111B3CF982F9F7D49
:104640009554933028F40C5F1F4F9FE399830DC05E
:10465000833631F0833771F0833509F059C021C0BA
:10466000F801808189830E5F1F4F88248394912CE9
:10467000530113C02801F2E04F0E511CF801A08035
:10468000B18036FE03C0692D70E002C06FEF7FEF8E
:10469000C5010E948F244C018201F32DFF773F2E2C
:1046A00016C0280122E0420E511CF801A080B18002
:1046B00036FE03C0692D70E002C06FEF7FEFC501C9
:1046C0000E9484244C01F32DF0683F2E820133FCBC
:1046D0001BC0822D90E088169906B0F4B60180E2E6
:1046E00090E00E949A242A94F4CFF50137FC85913A
:1046F00037FE81915F01B60190E00E949A2421105B
:104700002A9421E0821A91088114910471F7E8C07B
:10471000843611F0893641F5F80137FE07C0608113
:104720007181828193810C5F1F4F08C0608171810C
:10473000072E000C880B990B0E5F1F4FF32DFF7691
:104740003F2E97FF09C090958095709561957F4F9A
:104750008F4F9F4FF0683F2E2AE030E0A3010E9468
:10476000D624882E861845C0853731F4232D2F7E18
:10477000B22E2AE030E025C0932D997FB92E8F36D6
:10478000C1F018F4883579F0B5C0803719F0883752
:1047900021F0B0C0E92FE061BE2EB4FE0DC0FB2DAC
:1047A000F460BF2E09C034FE0AC0292F2660B22E45
:1047B00006C028E030E005C020E130E002C020E182
:1047C00032E0F801B7FE07C0608171818281938178
:1047D0000C5F1F4F06C06081718180E090E00E5F2A
:1047E0001F4FA3010E94D624882E8618FB2DFF7729
:1047F0003F2E36FE0DC0232D2E7FA22E891458F495
:1048000034FE0BC032FC09C0832D8E7EA82E05C05D
:10481000B82CA32C03C0B82C01C0B92CA4FE0FC027
:10482000FE01E80DF11D8081803321F49A2D997EDF
:10483000A92E09C0A2FE06C0B394B39404C08A2D69
:10484000867809F0B394A3FC11C0A0FE06C0B21490
:1048500088F4280C922C9B180EC0B21460F4B60198
:1048600080E290E00E949A24B394F7CFB21418F437
:104870002B1802C0982C212CA4FE10C0B60180E396
:1048800090E00E949A24A2FE17C0A1FC03C088E712
:1048900090E002C088E590E0B6010CC08A2D8678D1
:1048A00059F0A1FE02C08BE201C080E2A7FC8DE2BC
:1048B000B60190E00E949A24891438F4B60180E38E
:1048C00090E00E949A249A94F7CF8A94F301E80D1D
:1048D000F11D8081B60190E00E949A248110F5CFED
:1048E000222009F442CEB60180E290E00E949A2490
:1048F0002A94F6CFF6018681978102C08FEF9FEF51
:104900002B96E2E10C944D25FC010590615070401E
:104910000110D8F7809590958E0F9F1F0895FC0188
:104920006150704001900110D8F7809590958E0FDE
:104930009F1F08950F931F93CF93DF93FB01238154
:1049400021FD03C08FEF9FEF2CC022FF16C04681D0
:104950005781248135814217530744F4A081B181E6
:104960009D012F5F3F4F208331838C9326813781B8
:104970002F5F3F4F2683378314C08B01EC01FB016F
:104980000084F185E02D0995892BE1F6D801169672
:104990008D919C911797019616968D939C931797DE
:1049A000CE01DF91CF911F910F910895FA01AA27AF
:1049B000283051F1203181F1E8946F936E7F6E5F62
:1049C0007F4F8F4F9F4FAF4FB1E03ED0B4E03CD010
:1049D000670F781F891F9A1FA11D680F791F8A1FF3
:1049E000911DA11D6A0F711D811D911DA11D20D05A
:1049F00009F468943F912AE0269F11243019305D14
:104A00003193DEF6CF010895462F4770405D419304
:104A1000B3E00FD0C9F7F6CF462F4F70405D4A3351
:104A200018F0495D31FD4052419302D0A9F7EACF19
:104A3000B4E0A6959795879577956795BA95C9F748
:104A400000976105710508959B01AC010A2E06943B
:104A50005795479537952795BA95C9F7620F731FF4
:104A6000841F951FA01D08952F923F924F925F9231
:104A70006F927F928F929F92AF92BF92CF92DF926E
:104A8000EF92FF920F931F93CF93DF93CDB7DEB7D3
:104A9000CA1BDB0BCDBFDEBF09942A883988488842
:104AA0005F846E847D848C849B84AA84B984C8844A
:104AB000DF80EE80FD800C811B81AA81B981CE0F41
:0E4AC000D11DCDBFDEBFED010895F894FFCFEC
:104ACE0056414C49440000736F636B65745F6362BB
:104ADE003A20636F6E6E65637420737563636573DE
:104AEE0073210D00736F636B65745F63623A2063AD
:104AFE006F6E6E656374206572726F72210D007336
:104B0E006F636B65745F63623A2073656E642073C6
:104B1E00756363657373210D00736F636B65745FEB
:104B2E0063623A207265637620737563636573738F
:104B3E00210D0054435020436C69656E74205465FA
:104B4E00737420436F6D706C657465210D00736F07
:104B5E00636B65745F63623A20726563762065727B
:104B6E00726F72210D006D61696E3A206661696C1B
:104B7E00656420746F2063726561746520544350C0
:104B8E0020636C69656E7420736F636B657420654A
:104B9E0072726F72210D00474554202573204854C0
:104BAE0054502F312E310D0A486F73743A31393209
:104BBE002E3136382E31322E310D0A0D0A00444573
:104BCE004C45544520257320485454502F312E31D6
:104BDE000D0A486F73743A3139322E3136382E3110
:104BEE00322E310D0A0D0A00504F535420257320DA
:104BFE00485454502F312E310D0A486F73743A3188
:104C0E0039322E3136382E31322E310D0A436F6E37
:104C1E0074656E742D547970653A746578742F705E
:104C2E006C61696E0D0A436F6E74656E742D4C6502
:104C3E006E6774683A25640D0A436F6E6E65637411
:104C4E00696F6E3A636C6F73650D0A0D0A25730DED
:104C5E000A002C00535349443A25730D0A00504163
:104C6E0053533A25730D0A000D0A204E455720570F
:104C7E004946490D000D0A54696D6520556E7469DB
:104C8E006C20454550524F4D3A2025642073656384
:104C9E006F6E64730D0A0072657365740057555418
:104CAE000D000D0A436F6D6D616E6420746F6F2081
:104CBE006C6F6E670D0020776966690064657669B2
:104CCE0063650074696D6500A58CBF02C58CD10249
:104CDE00C48CD102CA8CCC02D18C4303CB082C04D9
:104CEE00CE08D708EB08FE081109140900000000D1
:104CFE00C900E824000000525CF0179119DB12DBAA
:104D0E0012DB12DB12DB124173736F636961746520
:104D1E0064205354412068617320495020416464DB
:104D2E0072657373202225752E25752E25752E25F9
:104D3E0075220A00776966695F63623A204D324DCB
:104D4E005F574946495F524553505F434F4E5F533D
:104D5E00544154455F4348414E4745443A20434FE2
:104D6E004E4E45435445440D00776966695F636254
:104D7E003A204D324D5F574946495F524553505F79
:104D8E00434F4E5F53544154455F4348414E474550
:104D9E00443A20444953434F4E4E45435445440DE7
:104DAE000050415353574F52443A25730D0A005643
:104DBE00616C696420454550524F4D0D005265613E
:104DCE006420454550524F4D0D0057726F7465204B
:104DDE00454550524F4D0D004E4557204C494E45BE
:104DEE002054494D450D00332C253033642E256457
:044DFE002C256400FC
:104E0200FFFFFF2F0400000000000000002300311C
:104E12000031091B090000000200000000F6090031
:104E2200000000E60AFD0A0E0B010CA80C5A0C0C3D
:104E32000B1A0B0A0BEF0A1C0B230B2A0B3B0BD58D
:104E42000AC50B840B420B012C04001B0800063020
:104E5200003218003D00002F6400340400110400E9
:104E6200132C000404006504000964002A040027CE
:104E720004003E00002F73656E736F72302E6874EB
:064E820074700000000046
:02000004008278
:090000000000020000C00700002E
:00000001FF
